:100000000C942A000C9484000C9493000C94A2008D
:100010000C943C000C943C000C943C000C943C0070
:100020000C943C000C943C000C943C000C943C0060
:100030000C943C000C943C000C943C000C943C0050
:100040000C943C000C943C000C943C000C943C0040
:100050000C943C0011241FBECFE5D8E0DEBFCDBF1D
:1000600020E0A0E6B0E001C01D92A036B207E1F7A3
:100070000E946D000C94B1000C94000081B38B7F42
:1000800081BB81B3877F81BB87B38B7F87BB81B304
:10009000806281BB81B3806481BB81B3806881BB96
:1000A00008958FB780688FBF8BB780628BBF8BB787
:1000B00080648BBF8BB780688BBF85B78D7F85BF12
:1000C00085B7816085BF85B7846085BF85B7886047
:1000D00085BF84B78F7B84BF08950E943E000E9435
:1000E000510082B38F7D82BB82B38F7B82BB82B390
:1000F0008F7782BB2FE382E49FE0215080409040C5
:10010000E1F700C00000EDCF1F920F920FB60F92E3
:1001100011248F9382B3806282BB8F910F900FBEA8
:100120000F901F9018951F920F920FB60F921124E7
:100130008F9382B3806482BB8F910F900FBE0F901C
:100140001F9018951F920F920FB60F9211248F9344
:1001500082B3806882BB8F910F900FBE0F901F906B
:060160001895F894FFCF92
:00000001FF
