S01A0000756E6974375F6C6573736F6E315F6C6162322E737265632F
S11300000C942A000C943F000C943F000C943F0085
S11300100C943F000C943F000C943F000C943F0060
S11300200C943F000C943F000C943F000C943F0050
S11300300C943F000C943F000C943F000C943F0040
S11300400C943F000C943F000C943F000C943F0030
S11300500C943F0011241FBECFE5D8E0DEBFCDBF16
S113006010E0A0E6B0E0EEEBF0E002C005900D92E7
S1130070AA36B107D9F70E9446000C945D000C948F
S113008000008AB38FEF8ABB8BBB08950E944100A6
S113009080E010C0E82FF0E0E05AFF4F90819BBB56
S11300A02FEF33ED90E3215030409040E1F700C052
S11100B000008F5F8A3070F3EBCFF894FFCF1F
S10D00BE3F065B4F666D7D077F6F00
S9030000FC
