S01D0000756E6974385F6C6573736F6E355F73656374696F6E2E7372656393
S11300000C942A000C9447000C9447000C9447006D
S11300100C9447000C9447000C9447000C94470040
S11300200C9447000C9447000C9447000C94470030
S11300300C9447000C9447000C9447000C94470020
S11300400C9447000C9447000C9447000C94470010
S11300500C94470011241FBECFE5D8E0DEBFCDBF0E
S113006010E0A0E6B0E0E8EEF2E002C005900D92E8
S1130070A037B107D9F720E0A0E7B0E001C01D9296
S1130080A337B207E1F70E9414010C9472010C9497
S113009000009BB39F70282F207F922B9BBB98B3AB
S11300A09E7F98BB98B3946098BB000098B39B7FE5
S11300B098BB32E43A95F1F700C02BB330E1839F4B
S11300C0C0011124922F9F70892B8BBB88B384604D
S11300D088BB000088B38B7F88BB83EF91E00197D6
S11300E0F1F700C0000008958FEF87BB8ABB87E853
S11300F093E10197F1F700C0000082E00E944900FB
S113010088E20E9449008CE00E94490086E00E9437
S1130110490081E00E94490080E80E944900089556
S1130120811108C0603130F4862F8F7080680E947E
S113013049000895813039F4603128F4862F8F7096
S1130140806C0E944900089581E00E94490081EE7C
S113015094E00197F1F700C0000080E80E94490094
S1130160109270000895CF93C82F80917000803151
S113017029F460E081E00E94900006C0803221F4FE
S11301800E94A400109270008BB38F709C2F907FFC
S1130190892B8BBB88B3816088BB88B38D7F88BB78
S11301A088B3846088BB000088B38B7F88BB32E44B
S11301B03A95F1F700C02BB330E1C39FC00111247D
S11301C0922F9F70892B8BBB88B3846088BB0000FF
S11301D088B38B7F88BB83EF91E00197F1F700C070
S11301E00000809170008F5F80937000CF9108951C
S11301F00F931F93CF93DF938C01C0E0D0E009C02D
S11302000E94B30083EC99E00197F1F700C000006D
S11302102196F801EC0FFD1F80818111F1CFDF9150
S1130220CF911F910F9108950E94740080E00E9465
S1130230620181E690E00E94F80061E081E00E94A2
S11302409000809160000E946A0180937200809106
S113025060008F5F809360002FE986E891E0215071
S113026080409040E1F700C00000EBCF87B380628C
S113027087BB87B38F7B87BB87B3806187BB87B31B
S1130280806887BB8DB181608DB98DB180618DB976
S113029088B38F7E88BB8DB180648DB9089587B390
S11302A08F7D87BB87B3806487BB87B38F7E87BB13
S11302B087B38F7787BB8DB18F7E8DB98DB1806405
S11302C08DB90895811103C00E94360108950E94DA
S11302D04F0108958FB9779BFECF88B3806188BBA7
S10B02E08FB10895F894FFCFDB
S11302E8414D6173746572204D43552121210000ED
S9030000FC
