S01D0000756E6974385F6C6573736F6E325F73656374696F6E2E7372656396
S11300000C942A000C9447000C9447000C9447006D
S11300100C9447000C9447000C9447000C94470040
S11300200C9447000C9447000C9447000C94470030
S11300300C9447000C9447000C9447000C94470020
S11300400C9447000C9447000C9447000C94470010
S11300500C94470011241FBECFE5D8E0DEBFCDBF0E
S113006010E0A0E6B0E0EAE8F3E002C005900D92EB
S1130070A637B107D9F720E0A6E7B0E001C01D928A
S1130080A737B207E1F70E942D010C94C3010C9429
S113009000009BB39F70282F207F922B9BBB98B3AB
S11300A09E7F98BB98B3946098BB32E03A95F1F781
S11300B000C098B39B7F98BBEFE8F1E03197F1F76C
S11300C000C000002BB3F0E18F9FC0011124922FD8
S11300D09F70892B8BBB88B3846088BB32E03A95D0
S11300E0F1F700C088B38B7F88BB8FE99FE001974D
S11300F0F1F700C0000008958FEF87BB8ABB8FE340
S11301009CE90197F1F700C0000082E00E944900D9
S113011088E20E9449008CE00E94490086E00E9427
S1130120490081E00E94490080E80E944900089546
S1130130811108C0603130F4862F8F7080680E946E
S113014049000895813039F4603128F4862F8F7086
S1130150806C0E944900089581E00E9449008FE06C
S113016097E20197F1F700C0000080E80E9449007F
S1130170109276000895CF93C82F80917600803135
S113018029F460E081E00E94980006C0803221F4E6
S11301900E94AC00109276008BB38F709C2F907FDE
S11301A0892B8BBB88B3816088BB88B38D7F88BB68
S11301B088B3846088BB22E02A95F1F700C088B335
S11301C08B7F88BB8FE891E00197F1F700C00000B6
S11301D02BB330E1C39FC0011124922F9F70892B50
S11301E08BBB88B3846088BB82E08A95F1F700C03A
S11301F088B38B7F88BB8FE99FE00197F1F700C03C
S113020000009FEF20E732E0915020403040E1F7BA
S113021000C00000809176008F5F80937600CF91BC
S113022008950F931F93CF93DF938C01C0E0D0E028
S113023009C00E94BB008FE19EE40197F1F700C062
S113024000002196F801EC0FFD1F80818111F1CF90
S1130250DF91CF911F910F9108950E947C0060E877
S113026075E280E090E00E94580180E690E00E94F0
S113027011012FEF80E792E0215080409040E1F798
S113028000C000000E94AC0086E690E00E948E014F
S11302900E948601C82F8FE097E20197F1F700C012
S11302A000008C2F0E94BB008C2F0E948A01F0CF8B
S11302B02AB128612AB920B5266820BDDC01CB010A
S11302C0880F991FAA1FBB1F880F991FAA1FBB1F46
S11302D09C01AD01220F331F441F551F220F331FF2
S11302E0441F551F60E072E18AE790E00E94A1017B
S11302F08FEF820F89B9DA01C9010197A109B10908
S1130300892F9A2FAB2FBB2780BD08955F9BFECF0B
S11303108CB108955D9BFECF8CB908950F931F9304
S1130320CF938C01C0E003C00E948A01CF5FF80123
S1130330EC0FF11D80818111F7CFCF911F910F91A7
S11303400895A1E21A2EAA1BBB1BFD010DC0AA1F12
S1130350BB1FEE1FFF1FA217B307E407F50720F02A
S1130360A21BB30BE40BF50B661F771F881F991FA5
S11303701A9469F760957095809590959B01AC01EE
S10D0380BD01CF010895F894FFCFEA
S113038A68656C6C6F000A09204563686F205465C0
S109039A7374200A000048
S9030000FC
