S0290000756E6974385F6C6573736F6E365F73656374696F6E5F6C6162325F4D61737465722E73726563FB
S11300000C942A000C9434000C9434000C943400A6
S11300100C9434000C9434000C9434000C9434008C
S11300200C9434000C9434000C9434000C9434007C
S11300300C9434000C9434000C9434000C9434006C
S11300400C9434000C9434000C9434000C9434005C
S11300500C94340011241FBECFE5D8E0DEBFCDBF21
S11300600E9474000C94B1000C9400009B01AC013C
S113007060E072E18AE790E00E948F00DA01C90132
S11300804097A109B109B695A7959795879580B929
S113009011B8089594EA96BF06B607FEFDCF91B154
S11300A0987F983071F483B984E886BF06B607FE5A
S11300B0FDCF81B1887F883131F0803231F482E024
S11300C0089580E0089581E0089583E0089584EC24
S11300D086BF06B607FEFDCF83B1089584E986BFC7
S11300E006B604FCFDCF08958FEF8ABB2FEF84E39F
S11300F09CE0215080409040E1F700C0000068E49B
S113010070E080E090E00E94360081ED0E944A0099
S11301100E946700C82F0E946E00CBBBE7CFA1E20C
S11301201A2EAA1BBB1BFD010DC0AA1FBB1FEE1F6D
S1130130FF1FA217B307E407F50720F0A21BB30BB8
S1130140E40BF50B661F771F881F991F1A9469F734
S113015060957095809590959B01AC01BD01CF0190
S10901600895F894FFCF9E
S9030000FC
