S01A0000756E6974375F6C6573736F6E315F6C6162322E737265632F
S11300000C942A000C9434000C9434000C943400A6
S11300100C9434000C9434000C9434000C9434008C
S11300200C9434000C9434000C9434000C9434007C
S11300300C9434000C9434000C9434000C9434006C
S11300400C9434000C9434000C9434000C9434005C
S11300500C94340011241FBECFE5D8E0DEBFCDBF21
S11300600E943A000C949F000C94000081B38FEF1F
S113007081BB08950E94360092B380E2982792BB18
S11300802FEF39E698E1215030409040E1F700C06D
S1130090000092B3892782BB2FEF39E688E1215013
S11300A030408040E1F700C0000092B380E498271C
S11300B092BB9FEF29E638E1915020403040E1F7B0
S11300C000C0000092B3892782BB8FEF99E628E134
S11300D0815090402040E1F700C0000082B3805876
S11300E082BB3FEF89E698E1315080409040E1F7D0
S11300F000C0000082B3805882BB2FEF33E284EF4C
S1130100215030408040E1F700C0000082B380619C
S113011082BB9FEF29E638E1915020403040E1F75F
S113012000C0000082B38F7E82BB8FEF99E628E186
S1130130815090402040E1F700C000009DCFF8942A
S1050140FFCFEB
S9030000FC
