S01A0000756E6974375F6C6573736F6E315F6C6162322E737265632F
S11300000C942A000C9434000C9434000C943400A6
S11300100C9434000C9434000C9434000C9434008C
S11300200C9434000C9434000C9434000C9434007C
S11300300C9434000C9434000C9434000C9434006C
S11300400C9434000C9434000C9434000C9434005C
S11300500C94340011241FBECFE5D8E0DEBFCDBF21
S11300600E9445000C945C010C9400008AB38FEF4D
S11300708ABB91B381BB84B38E7F84BB85B381601B
S113008085BB84B3826084BB08950E94360097E0E8
S113009080E0989986C081110FC03BB321E02327EB
S11300A02BBB8F5F2FEF34E34CE0215030404040B6
S11300B0E1F700C0000075C0813079F43BB322E061
S11300C023272BBB8F5F2FEF34E34CE021503040CC
S11300D04040E1F700C0000064C0823079F43BB3D3
S11300E024E023272BBB8F5F2FEF34E34CE0215018
S11300F030404040E1F700C0000053C0833079F441
S11301003BB328E023272BBB8F5F2FEF34E34CE076
S1130110215030404040E1F700C0000042C084302C
S113012079F43BB320E123272BBB8F5F2FEF34E31C
S11301304CE0215030404040E1F700C0000031C0A5
S1130140853079F43BB320E223272BBB8F5F2FEF5D
S113015034E34CE0215030404040E1F700C000005F
S113016020C0863079F43BB320E423272BBB8F5F78
S11301702FEF34E34CE0215030404040E1F700C021
S113018000000FC0873069F42BB320582BBB8F5F5E
S11301902FEF34E34CE0215030404040E1F700C001
S11301A00000989976CF883009F073CF973071F4B6
S11301B02BB320582BBB91502FEF34E34CE021504C
S11301C030404040E1F700C0000063CF963079F43E
S11301D03BB320E423272BBB91502FEF34E34CE0B7
S11301E0215030404040E1F700C0000052CF95302C
S11301F079F43BB320E223272BBB91502FEF34E358
S11302004CE0215030404040E1F700C0000041CFB5
S1130210943079F43BB320E123272BBB91502FEF8B
S113022034E34CE0215030404040E1F700C000008E
S113023030CF933079F43BB328E023272BBB915084
S11302402FEF34E34CE0215030404040E1F700C050
S113025000001FCF923079F43BB324E023272BBB5B
S113026091502FEF34E34CE0215030404040E1F70F
S113027000C000000ECF913079F43BB322E0232775
S11302802BBB91502FEF34E34CE0215030404040E1
S1130290E1F700C00000FDCE8111FBCE3BB321E0AD
S11302A023272BBB2FEF34E34CE021503040404058
S10F02B0E1F700C00000EDCEF894FFCF91
S9030000FC
