:100000000C942A000C943F000C943F000C943F0089
:100010000C943F000C943F000C943F000C943F0064
:100020000C943F000C943F000C943F000C943F0054
:100030000C943F000C943F000C943F000C943F0044
:100040000C943F000C943F000C943F000C943F0034
:100050000C943F0011241FBECFE5D8E0DEBFCDBF1A
:1000600010E0A0E6B0E0E8E6F3E002C005900D92F3
:10007000A037B107D9F70E949F010C94B2010C94EC
:10008000000084B384BB84B3806F84BB8FEF85BBD7
:1000900008950F931F93CF93DF9340E050E09DC0EE
:1000A00035B3E0E6F0E081E090E08C01008002C032
:1000B000000F111F0A94E2F7EC01028002C0CC0F7E
:1000C000DD1F0A94E2F7DC01048002C0AA0FBB1F07
:1000D0000A94E2F7BC01068002C0660F771F0A94FB
:1000E000E2F72C2F202B2A2B262B232B25BB25B3E5
:1000F000FA01EE0FFF1FE05AFF4F008002C0880F89
:10010000991F0A94E2F78095822385BB60E070E036
:100110005EC083B3FB01EE0FFF1FE859FF4F208144
:1001200090E0022E02C0959587950A94E2F780FD33
:100130004CC083B390E0022E02C0959587950A9437
:10014000E2F780FFF6CF41305105C9F024F44115A4
:10015000510541F03AC042305105F1F043305105AC
:1001600041F133C061157105F1F161307105E9F1BB
:1001700062307105E1F16330710539F53AC06115FE
:100180007105C9F161307105C1F162307105B9F1D4
:1001900063307105D1F435C061157105A1F161308D
:1001A000710599F16230710591F16330710569F45F
:1001B00030C06115710579F16130710571F16230FE
:1001C000710569F16330710561F16F5F7F4F6430D4
:1001D00071050CF49ECF4F5F5F4F443051050CF416
:1001E0005FCF8EE41FC087E31DC084E31BC081E3A3
:1001F00019C081E217C088E315C085E313C082E30C
:1002000011C080E30FC089E30DC086E30BC083E318
:1002100009C08DE307C08FE205C08AE203C08DE20A
:1002200001C08BE2DF91CF911F910F91089588B3A8
:10023000877F88BB8BE49DE10197F1F700C0000048
:1002400088B3886088BB08958AB31ABA88B384607B
:1002500088BB88B38D7F88BB0E9417018AB38FEF5C
:100260008ABB88B38B7F88BB0895CF93C82F88B390
:100270008B7F88BB88B38D7F88BB0E942401CBBB5A
:100280000E941701CF91089581E00E9435010895E1
:1002900087E893E10197F1F700C000000E94240174
:1002A00087B38E6087BB88B3817F88BB8AB38FEFAB
:1002B0008ABB0E94440188E30E94350186E00E94C7
:1002C000350180E80E9435018FE00E9435010895D4
:1002D000CF93C82F0E94240188B3826088BB88B363
:1002E0008B7F88BBCBBB0E941701CF91089580E420
:1002F0000E94350180E00E9468018EE00E94680142
:1003000081E10E94680182E00E94680184E00E940D
:10031000680184E00E94680180E00E94680184E036
:100320000E94680180E80E94350180E00E94680117
:1003300083EC99E00197F1F700C0000008950E9456
:1003400048010E9441000E9477010E9449008132C9
:1003500019F08E34D1F303C00E944401F6CF0E94FD
:080360006801F3CFF894FFCF10
:100368000400050006000700000001000200030069
:00000001FF
