:100000000C942A000C9434000C9434000C943400AA
:100010000C9434000C9434000C9434000C94340090
:100020000C9434000C9434000C9434000C94340080
:100030000C9434000C9434000C9434000C94340070
:100040000C9434000C9434000C9434000C94340060
:100050000C94340011241FBECFE5D8E0DEBFCDBF25
:100060000E943C000C94FF000C9400008AB38FEFB8
:100070008ABB91B381BB08950E9436008BB3816027
:100080008BBB2FEF89E698E1215080409040E1F74B
:1000900000C000008BB382608BBB2FEF89E698E134
:1000A000215080409040E1F700C000008BB3846095
:1000B0008BBB2FEF89E698E1215080409040E1F71B
:1000C00000C000008BB388608BBB2FEF89E698E1FE
:1000D000215080409040E1F700C000008BB3806168
:1000E0008BBB2FEF89E698E1215080409040E1F7EB
:1000F00000C000008BB380628BBB2FEF89E698E1D4
:10010000215080409040E1F700C000008BB3806434
:100110008BBB2FEF89E698E1215080409040E1F7BA
:1001200000C000008BB380688BBB2FEF89E698E19D
:10013000215080409040E1F700C000008BB38F77E2
:100140008BBB2FEF89E698E1215080409040E1F78A
:1001500000C000008BB38F7B8BBB2FEF89E698E14B
:10016000215080409040E1F700C000008BB38F7DAC
:100170008BBB2FEF89E698E1215080409040E1F75A
:1001800000C000008BB38F7E8BBB2FEF89E698E118
:10019000215080409040E1F700C000008BB3877F82
:1001A0008BBB2FEF89E698E1215080409040E1F72A
:1001B00000C000008BB38B7F8BBB2FEF89E698E1EB
:1001C000215080409040E1F700C000008BB38D7F4C
:1001D0008BBB2FEF89E698E1215080409040E1F7FA
:1001E00000C000008BB38E7F8BBB2FEF89E698E1B8
:1001F000215080409040E1F700C000003FCFF894CC
:02020000FFCF2E
:00000001FF
