:100000000C942A000C9447000C9447000C94470071
:100010000C9447000C9447000C9447000C94470044
:100020000C9447000C9447000C94B0010C94D70139
:100030000C9447000C9447000C9447000C94470024
:100040000C9447000C9447000C9447000C94470014
:100050000C94470011241FBECFE5D8E0DEBFCDBF12
:1000600010E0A0E6B0E0EAE5F4E002C005900D92F1
:10007000A637B107D9F720E0A6E7B0E001C01D928E
:10008000AE37B207E1F70E9408010C942B020C94E2
:1000900000009BB39F70282F207F922B9BBB9BB3AC
:1000A0009E7F9BBB9BB394609BBB00009BB39B7FDD
:1000B0009BBB32E43A95F1F700C02BB330E1839F4C
:1000C000C0011124922F9F70892B8BBB8BB384604E
:1000D0008BBB00008BB38B7F8BBB83EF91E00197D1
:1000E000F1F700C0000008958FEF8ABB8ABB87E854
:1000F00093E10197F1F700C0000082E00E944900FF
:1001000088E20E9449008CE00E94490086E00E943B
:10011000490081E00E94490080E80E94490008955A
:10012000CF93C62F811108C0603130F4862F8F70B5
:1001300080680E94490009C0813039F4C03128F438
:100140008C2F8F70806C0E944900C0937600CF91F5
:100150000895CF93C82F80917600803129F460E014
:1001600081E00E94900004C0803211F41092760069
:100170008BB38F709C2F907F892B8BBB8BB381604F
:100180008BBB8BB38D7F8BBB8BB384608BBB000031
:100190008BB38B7F8BBB32E43A95F1F700C02BB366
:1001A00030E1C39FC0011124922F9F70892B8BBB1C
:1001B0008BB384608BBB00008BB38B7F8BBB83EFD7
:1001C00091E00197F1F700C00000809176008F5F09
:1001D00080937600CF9108950F931F93CF93DF9371
:1001E0008C01C0E0D0E009C00E94A90083EC99E036
:1001F0000197F1F700C000002196F801EC0FFD1FF8
:1002000080818111F1CFDF91CF911F910F910895DE
:10021000CF93DF9300D000D000D0CDB7DEB785E01C
:10022000E0E6F0E0DE01129601900D928A95E1F78A
:10023000CE0102960E9449010E94740085E690E07A
:100240000E94EC0002E310E017C0802F0E94A5017D
:10025000015011096BE081E00E94900009838981BF
:100260000E94A9002AE230E58EEF90E02150304054
:1002700080409040D9F700001016110634F32FE3A8
:100280003DE083E0215030408040E1F700C00000B5
:10029000D9CF009709F455C09093780080937700E8
:1002A000FC018081882331F0883021F0803411F006
:1002B0008834A9F493B7892B83BFE0917700F0913C
:1002C00078008081803411F0883449F48481882357
:1002D00031F093B7892B83BF87B3886087BBE091E8
:1002E0007700F09178008281823011F081110BC08B
:1002F00099B7892B89BFE0917700F09178008281CE
:10030000823009F47894E0917700F091780083814D
:10031000823058F499B7892B89BFE0917700F0912A
:1003200078008381813009F47894E0917700F0912E
:1003300078008181883038F493B7892B83BF80E0BF
:10034000089581E0089581E008952FEF829FC00114
:10035000112464E670E00E9403026CBF81E00895FE
:100360001F920F920FB60F9211242F933F934F932A
:100370005F936F937F938F939F93AF93BF93EF930D
:10038000FF93E0917A00F0917B000995FF91EF9146
:10039000BF91AF919F918F917F916F915F914F919D
:1003A0003F912F910F900FBE0F901F9018951F92A5
:1003B0000F920FB60F9211242F933F934F935F9399
:1003C0006F937F938F939F93AF93BF93EF93FF931D
:1003D000809179008F5F80937900E0917C00F091AB
:1003E0007D000995FF91EF91BF91AF919F918F9102
:1003F0007F916F915F914F913F912F910F900FBE21
:100400000F901F90189597FB072E16F4009407D0B5
:1004100077FD09D00E94170207FC05D03EF49095A5
:1004200081959F4F0895709561957F4F0895AA1B00
:10043000BB1B51E107C0AA1FBB1FA617B70710F0CF
:10044000A61BB70B881F991F5A95A9F78095909501
:0A045000BC01CD010895F894FFCF20
:10045A0040040000202044757479206379636C6538
:06046A003D2020202500CA
:00000001FF
