:100000000C942A000C9447000C9447000C94470071
:100010000C9447000C9447000C9447000C94470044
:100020000C9447000C9447000C9447000C94470034
:100030000C9447000C9447000C9447000C94470024
:100040000C9447000C9447000C9447000C94470014
:100050000C94470011241FBECFE5D8E0DEBFCDBF12
:1000600010E0A0E6B0E0E2EFF8E002C005900D92EB
:10007000A038B107D9F720E0A0E8B0E001C01D9298
:10008000A338B207E1F70E9429010C9477040C947D
:1000900000009BB39F70282F207F922B9BBB98B3AF
:1000A0009E7F98BB98B3946098BB000098B39B7FE9
:1000B00098BB32E43A95F1F700C02BB330E1839F4F
:1000C000C0011124922F9F70892B8BBB88B3846051
:1000D00088BB000088B38B7F88BB83EF91E00197DA
:1000E000F1F700C0000008958FEF87BB8ABB87E857
:1000F00093E10197F1F700C0000082E00E944900FF
:1001000088E20E9449008CE00E94490086E00E943B
:10011000490081E00E94490080E80E94490008955A
:10012000CF93C62F811108C0603130F4862F8F70B5
:1001300080680E94490009C0813039F4C03128F438
:100140008C2F8F70806C0E944900C0938000CF91EB
:100150000895CF93C82F80918000803129F460E00A
:1001600081E00E94900004C0803211F4109280005F
:100170008BB38F709C2F907F892B8BBB88B3816052
:1001800088BB88B38D7F88BB88B3846088BB000040
:1001900088B38B7F88BB32E43A95F1F700C02BB36C
:1001A00030E1C39FC0011124922F9F70892B8BBB1C
:1001B00088B3846088BB000088B38B7F88BB83EFE3
:1001C00091E00197F1F700C00000809180008F5FFF
:1001D00080938000CF9108950F931F93CF93DF9367
:1001E0008C01C0E0D0E009C00E94A90083EC99E036
:1001F0000197F1F700C000002196F801EC0FFD1FF8
:1002000080818111F1CFDF91CF911F910F910895DE
:100210000F931F93CF93C62F8A01811108C06031BD
:1002200030F4862F8F7080680E94490009C08130A9
:1002300039F4C03128F48C2F8F70806C0E944900F3
:10024000C0938000C8010E94EC00CF911F910F91D4
:1002500008950E94740081E00E94800181E690E090
:100260000E94EC004EE650E060E081E00E94080150
:10027000809160000E948801809382001F928F937A
:100280008CE790E09F938F9381E890E09F938F930A
:100290000E948D0141E850E06DE081E00E9408017C
:1002A0000F900F900F900F900F900F90E1CF87B3AA
:1002B000806287BB87B38F7B87BB87B3806187BB37
:1002C00087B3806887BB8DB180618DB988B38F7E1D
:1002D00088BB8DB180648DB9089587B38F7D87BB4E
:1002E00087B3806487BB87B38F7E87BB87B38F77E5
:1002F00087BB8DB18F7E8DB98DB180648DB9089526
:10030000811103C00E94570108950E946D01089554
:100310008FB9779BFECF8FB10895AEE0B0E0E3E9EF
:10032000F1E00C944E040D891E8986E08C831A83BB
:1003300009838FEF9FE79E838D83AE01475E5F4FFA
:100340006F89788DCE0101960E94AF01EF81F8850B
:10035000E00FF11F10822E96E4E00C946A04ABE0EB
:10036000B0E0E5EBF1E00C9440046C017B018A0104
:10037000FC0117821682838181FFCCC1CE010196D8
:100380003C01F6019381F70193FD859193FF8191E3
:100390007F01882309F4BAC1853239F493FD859130
:1003A00093FF81917F01853229F4B60190E00E948C
:1003B000A603E7CF912C212C312CFFE1F315D8F0C7
:1003C0008B3279F038F4803279F08332A1F4232D26
:1003D00020611DC08D3261F0803369F4232D2160CE
:1003E00016C0832D8260382EE32DE4603E2E2AC095
:1003F000F32DF8601DC037FC2DC020ED280F2A30EA
:1004000040F08E32B9F436FC81C1232D2064322EA7
:1004100019C036FE06C08AE0989E200D1124922E47
:1004200011C0EAE02E9E200D1124222EF32DF06241
:100430003F2E08C08C3621F4832D8068382E02C0F0
:10044000883641F4F70193FD859193FF81917F01F7
:100450008111B3CF982F9F7D9554933028F40C5F72
:100460001F4F9FE399830DC0833631F0833771F0BE
:10047000833509F059C021C0F801808189830E5F5E
:100480001F4F88248394912C530113C02801F2E05C
:100490004F0E511CF801A080B18036FE03C0692DBB
:1004A00070E002C06FEF7FEFC5010E949B034C011B
:1004B0008201F32DFF773F2E16C0280122E0420E65
:1004C000511CF801A080B18036FE03C0692D70E098
:1004D00002C06FEF7FEFC5010E9490034C01F32D26
:1004E000F0683F2E820133FC1BC0822D90E08816FD
:1004F0009906B0F4B60180E290E00E94A6032A9427
:10050000F4CFF50137FC859137FE81915F01B6018B
:1005100090E00E94A60321102A9421E0821A9108FB
:100520008114910471F7E8C0843611F0893641F5E1
:10053000F80137FE07C060817181828193810C5F71
:100540001F4F08C060817181072E000C880B990B2A
:100550000E5F1F4FF32DFF763F2E97FF09C090953A
:100560008095709561957F4F8F4F9F4FF0683F2E1C
:100570002AE030E0A3010E94E203882E861845C0DD
:10058000853731F4232D2F7EB22E2AE030E025C0AE
:10059000932D997FB92E8F36C1F018F4883579F0F4
:1005A000B5C0803719F0883721F0B0C0E92FE0617D
:1005B000BE2EB4FE0DC0FB2DF460BF2E09C034FE6C
:1005C0000AC0292F2660B22E06C028E030E005C000
:1005D00020E130E002C020E132E0F801B7FE07C0C0
:1005E00060817181828193810C5F1F4F06C06081A1
:1005F000718180E090E00E5F1F4FA3010E94E20333
:10060000882E8618FB2DFF773F2E36FE0DC0232D3A
:100610002E7FA22E891458F434FE0BC032FC09C080
:10062000832D8E7EA82E05C0B82CA32C03C0B82C19
:1006300001C0B92CA4FE0FC0FE01E80DF11D8081A0
:10064000803321F49A2D997EA92E09C0A2FE06C0FE
:10065000B394B39404C08A2D867809F0B394A3FCB4
:1006600011C0A0FE06C0B21488F4280C922C9B186E
:100670000EC0B21460F4B60180E290E00E94A603BE
:10068000B394F7CFB21418F42B1802C0982C212C75
:10069000A4FE10C0B60180E390E00E94A603A2FE73
:1006A00017C0A1FC03C088E790E002C088E590E095
:1006B000B6010CC08A2D867859F0A1FE02C08BE2EB
:1006C00001C080E2A7FC8DE2B60190E00E94A60383
:1006D000891438F4B60180E390E00E94A6039A944E
:1006E000F7CF8A94F301E80DF11D8081B60190E007
:1006F0000E94A6038110F5CF222009F442CEB60154
:1007000080E290E00E94A6032A94F6CFF60186814B
:10071000978102C08FEF9FEF2B96E2E10C945C046F
:10072000FC010590615070400110D8F780959095BC
:100730008E0F9F1F0895FC016150704001900110C1
:10074000D8F7809590958E0F9F1F08950F931F9354
:10075000CF93DF93FB01238121FD03C08FEF9FEF38
:100760002CC022FF16C04681578124813581421753
:10077000530744F4A081B1819D012F5F3F4F318326
:1007800020838C93268137812F5F3F4F37832683C9
:1007900014C08B01EC01FB010084F185E02D09956B
:1007A000892BE1F6D80116968D919C9117970196A9
:1007B00017969C938E931697CE01DF91CF911F9140
:1007C0000F910895FA01AA27283051F1203181F1C3
:1007D000E8946F936E7F6E5F7F4F8F4F9F4FAF4F49
:1007E000B1E03ED0B4E03CD0670F781F891F9A1F5C
:1007F000A11D680F791F8A1F911DA11D6A0F711D10
:10080000811D911DA11D20D009F468943F912AE01B
:10081000269F11243019305D3193DEF6CF01089503
:10082000462F4770405D4193B3E00FD0C9F7F6CF34
:10083000462F4F70405D4A3318F0495D31FD4052FC
:10084000419302D0A9F7EACFB4E0A6959795879592
:1008500077956795BA95C9F7009761057105089571
:100860009B01AC010A2E069457954795379527951D
:10087000BA95C9F7620F731F841F951FA01D0895B5
:100880002F923F924F925F926F927F928F929F92A0
:10089000AF92BF92CF92DF92EF92FF920F931F938E
:1008A000CF93DF93CDB7DEB7CA1BDB0B0FB6F8943F
:1008B000DEBF0FBECDBF09942A88398848885F847F
:1008C0006E847D848C849B84AA84B984C884DF80F0
:1008D000EE80FD800C811B81AA81B981CE0FD11DD4
:1008E0000FB6F894DEBF0FBECDBFED010895F894AA
:0208F000FFCF38
:1008F200FF536C61766520446576696365005265D5
:10090200636569766520446174613A00256400007C
:00000001FF
