S0280000756E6974385F6C6573736F6E345F73656374696F6E5F6C6162315F736C6176652E7372656350
S11300000C942A000C943C000C943C000C943C008E
S11300100C943C000C943C000C943C000C943C006C
S11300200C943C000C943C000C943C000C943C005C
S11300300C943C000C943C000C943C000C943C004C
S11300400C943C000C943C000C943C000C943C003C
S11300500C943C0011241FBECFE5D8E0DEBFCDBF19
S113006020E0A0E6B0E001C01D92A036B207E1F79F
S11300700E943E000C9471000C940000CF930E94E7
S113008059008FEF8ABBC3E60EC08C2F0E946C0010
S11300908BBB2FEF89E698E1215080409040E1F737
S11300A000C00000C1501C1684F380E090E0CF91A2
S11300B0089587B38F7D87BB87B38F7787BB87B35B
S11300C0806487BB87B38F7E87BB8DB18F7E8DB9EC
S11300D08DB180648DB908958FB9779BFECF8FB1B0
S10900E00895F894FFCF1F
S9030000FC
