S01200006C63645F6472697665722E73726563F4
S11300000C942A000C943F000C943F000C943F0085
S11300100C943F000C943F000C943F000C943F0060
S11300200C943F000C943F000C943F000C943F0050
S11300300C943F000C943F000C943F000C943F0040
S11300400C943F000C943F000C943F000C943F0030
S11300500C943F0011241FBECFE5D8E0DEBFCDBF16
S113006010E0A0E6B0E0EEE8F2E002C005900D92E8
S1130070AC37B107D9F70E9426010C9445010C94C2
S113008000009BB39F70282F207F922B9BBB98B3BB
S11300909E7F98BB98B3946098BB000098B39B7FF5
S11300A098BB32E43A95F1F700C02BB330E1839F5B
S11300B0C0011124922F9F70892B8BBB88B384605D
S11300C088BB000088B38B7F88BB83EF91E00197E6
S11300D0F1F700C0000008959BB39F70282F207F84
S11300E0922B9BBB98B3916098BB98B39D7F98BBB0
S11300F098B3946098BB000098B39B7F98BB32E49C
S11301003A95F1F700C02BB330E1839FC00111246D
S1130110922F9F70892B8BBB88B3846088BB0000AF
S113012088B38B7F88BB83EF91E00197F1F700C020
S1130130000008958FEF87BB8ABB87E893E101979E
S1130140F1F700C0000082E00E94410088E20E94B2
S113015041008CE00E94410086E00E94410081E061
S11301600E94410080E80E94410008950F931F936C
S1130170CF93DF938C01C0E0D0E009C00E946C00F3
S113018083EC99E00197F1F700C000002196F80193
S1130190EC0FFD1F80818111F1CFDF91CF911F9171
S11301A00F910895CF93DF93EA01811108C0603164
S11301B030F4862F8F7080680E94410009C081301E
S11301C039F4603128F4862F8F70806C0E944100CE
S11301D0CE010E94B600DF91CF91089581E00E9484
S11301E0410081EE94E00197F1F700C0000080E83F
S11301F00E944100089500E110E0C0E0D0E00DC08D
S11302008CE10E9441002FE58AEE90E0215080406D
S11302109040E1F700C0000021960C171D0784F7F9
S1130220C0E0D0E00DC088E10E9441002FE58AEED5
S113023090E0215080409040E1F700C000002196FA
S11302400FE110E0CF31D10574F3D7CF0E949A00AB
S11302500E94EE0080E690E00E94B60087E893E1F9
S11302600197F1F700C000004AE650E060E081E049
S11302700E94D20087E893E10197F1F700C00000E3
S11102800E94FB000E94EE00FFCFF894FFCF17
S113028E6661647920656D61640077656C636F6D7A
S10F029E65207465737420212121210067
S9030000FC
